{
  "contractName": "Client",
  "abi": [
    {
      "anonymous": false,
      "inputs": [
        {
          "indexed": false,
          "internalType": "address",
          "name": "_id",
          "type": "address"
        },
        {
          "indexed": false,
          "internalType": "string",
          "name": "_fname",
          "type": "string"
        },
        {
          "indexed": false,
          "internalType": "string",
          "name": "_lname",
          "type": "string"
        },
        {
          "indexed": false,
          "internalType": "int256",
          "name": "_cin",
          "type": "int256"
        },
        {
          "indexed": false,
          "internalType": "int256",
          "name": "_phone",
          "type": "int256"
        },
        {
          "indexed": false,
          "internalType": "string",
          "name": "_email",
          "type": "string"
        },
        {
          "indexed": false,
          "internalType": "string",
          "name": "_address",
          "type": "string"
        },
        {
          "indexed": false,
          "internalType": "string",
          "name": "_status",
          "type": "string"
        }
      ],
      "name": "PatientAdded",
      "type": "event"
    },
    {
      "inputs": [
        {
          "internalType": "address",
          "name": "_id",
          "type": "address"
        },
        {
          "internalType": "string",
          "name": "_fname",
          "type": "string"
        },
        {
          "internalType": "string",
          "name": "_lname",
          "type": "string"
        },
        {
          "internalType": "int256",
          "name": "_cin",
          "type": "int256"
        },
        {
          "internalType": "int256",
          "name": "_phone",
          "type": "int256"
        },
        {
          "internalType": "string",
          "name": "_email",
          "type": "string"
        },
        {
          "internalType": "string",
          "name": "_address",
          "type": "string"
        },
        {
          "internalType": "string",
          "name": "_status",
          "type": "string"
        }
      ],
      "name": "store_patient_details",
      "outputs": [],
      "stateMutability": "nonpayable",
      "type": "function"
    },
    {
      "inputs": [
        {
          "internalType": "int256",
          "name": "cin",
          "type": "int256"
        }
      ],
      "name": "retreive_patient_details",
      "outputs": [
        {
          "components": [
            {
              "internalType": "address",
              "name": "id",
              "type": "address"
            },
            {
              "internalType": "string",
              "name": "fname",
              "type": "string"
            },
            {
              "internalType": "string",
              "name": "lname",
              "type": "string"
            },
            {
              "internalType": "int256",
              "name": "cin",
              "type": "int256"
            },
            {
              "internalType": "int256",
              "name": "phone",
              "type": "int256"
            },
            {
              "internalType": "string",
              "name": "email",
              "type": "string"
            },
            {
              "internalType": "string",
              "name": "adress",
              "type": "string"
            },
            {
              "internalType": "string",
              "name": "status",
              "type": "string"
            }
          ],
          "internalType": "struct Client.Patientt",
          "name": "",
          "type": "tuple"
        }
      ],
      "stateMutability": "view",
      "type": "function",
      "constant": true
    },
    {
      "inputs": [],
      "name": "retreive_patients",
      "outputs": [
        {
          "components": [
            {
              "internalType": "address",
              "name": "id",
              "type": "address"
            },
            {
              "internalType": "string",
              "name": "fname",
              "type": "string"
            },
            {
              "internalType": "string",
              "name": "lname",
              "type": "string"
            },
            {
              "internalType": "int256",
              "name": "cin",
              "type": "int256"
            },
            {
              "internalType": "int256",
              "name": "phone",
              "type": "int256"
            },
            {
              "internalType": "string",
              "name": "email",
              "type": "string"
            },
            {
              "internalType": "string",
              "name": "adress",
              "type": "string"
            },
            {
              "internalType": "string",
              "name": "status",
              "type": "string"
            }
          ],
          "internalType": "struct Client.Patientt[]",
          "name": "",
          "type": "tuple[]"
        }
      ],
      "stateMutability": "view",
      "type": "function",
      "constant": true
    },
    {
      "inputs": [
        {
          "internalType": "int256",
          "name": "cin",
          "type": "int256"
        }
      ],
      "name": "update_patient_status",
      "outputs": [],
      "stateMutability": "nonpayable",
      "type": "function"
    }
  ],
  "bytecode": "0x608060405234801561001057600080fd5b5061180a806100206000396000f3fe608060405234801561001057600080fd5b506004361061004c5760003560e01c8063879855c714610051578063959d95ba1461006d578063a0d2c9961461008b578063a4bad185146100a7575b600080fd5b61006b60048036038101906100669190610c4c565b6100d7565b005b610075610138565b6040516100829190610ee7565b60405180910390f35b6100a560048036038101906100a0919061106a565b6104dc565b005b6100c160048036038101906100bc9190610c4c565b610836565b6040516100ce9190611278565b60405180910390f35b60006040518060400160405280600481526020017f5472756500000000000000000000000000000000000000000000000000000000815250905080600080848152602001908152602001600020600701908161013391906114b0565b505050565b60606001805480602002602001604051908101604052809291908181526020016000905b828210156104d35783829060005260206000209060080201604051806101000160405290816000820160009054906101000a900473ffffffffffffffffffffffffffffffffffffffff1673ffffffffffffffffffffffffffffffffffffffff1673ffffffffffffffffffffffffffffffffffffffff1681526020016001820180546101e6906112c9565b80601f0160208091040260200160405190810160405280929190818152602001828054610212906112c9565b801561025f5780601f106102345761010080835404028352916020019161025f565b820191906000526020600020905b81548152906001019060200180831161024257829003601f168201915b50505050508152602001600282018054610278906112c9565b80601f01602080910402602001604051908101604052809291908181526020018280546102a4906112c9565b80156102f15780601f106102c6576101008083540402835291602001916102f1565b820191906000526020600020905b8154815290600101906020018083116102d457829003601f168201915b50505050508152602001600382015481526020016004820154815260200160058201805461031e906112c9565b80601f016020809104026020016040519081016040528092919081815260200182805461034a906112c9565b80156103975780601f1061036c57610100808354040283529160200191610397565b820191906000526020600020905b81548152906001019060200180831161037a57829003601f168201915b505050505081526020016006820180546103b0906112c9565b80601f01602080910402602001604051908101604052809291908181526020018280546103dc906112c9565b80156104295780601f106103fe57610100808354040283529160200191610429565b820191906000526020600020905b81548152906001019060200180831161040c57829003601f168201915b50505050508152602001600782018054610442906112c9565b80601f016020809104026020016040519081016040528092919081815260200182805461046e906112c9565b80156104bb5780601f10610490576101008083540402835291602001916104bb565b820191906000526020600020905b81548152906001019060200180831161049e57829003601f168201915b5050505050815250508152602001906001019061015c565b50505050905090565b87600260000160006101000a81548173ffffffffffffffffffffffffffffffffffffffff021916908373ffffffffffffffffffffffffffffffffffffffff160217905550866002600101908161053291906114b0565b508560028001908161054491906114b0565b508460026003018190555083600260040181905550826002600501908161056b91906114b0565b50816002600601908161057e91906114b0565b50806002600701908161059191906114b0565b50600260008060026003015481526020019081526020016000206000820160009054906101000a900473ffffffffffffffffffffffffffffffffffffffff168160000160006101000a81548173ffffffffffffffffffffffffffffffffffffffff021916908373ffffffffffffffffffffffffffffffffffffffff160217905550600182018160010190816106269190611598565b506002820181600201908161063b9190611598565b506003820154816003015560048201548160040155600582018160050190816106649190611598565b50600682018160060190816106799190611598565b506007820181600701908161068e9190611598565b509050506001600290806001815401808255809150506001900390600052602060002090600802016000909190919091506000820160009054906101000a900473ffffffffffffffffffffffffffffffffffffffff168160000160006101000a81548173ffffffffffffffffffffffffffffffffffffffff021916908373ffffffffffffffffffffffffffffffffffffffff1602179055506001820181600101908161073a9190611598565b506002820181600201908161074f9190611598565b506003820154816003015560048201548160040155600582018160050190816107789190611598565b506006820181600601908161078d9190611598565b50600782018160070190816107a29190611598565b5050507ffb079bf3713141852e895d55e157a90baa03e8dc7a63a63735b467f7dd16db20600260000160009054906101000a900473ffffffffffffffffffffffffffffffffffffffff16600260010160028001600260030154600260040154600260050160026006016002600701604051610824989796959493929190611733565b60405180910390a15050505050505050565b61083e610ba7565b600080838152602001908152602001600020604051806101000160405290816000820160009054906101000a900473ffffffffffffffffffffffffffffffffffffffff1673ffffffffffffffffffffffffffffffffffffffff1673ffffffffffffffffffffffffffffffffffffffff1681526020016001820180546108c2906112c9565b80601f01602080910402602001604051908101604052809291908181526020018280546108ee906112c9565b801561093b5780601f106109105761010080835404028352916020019161093b565b820191906000526020600020905b81548152906001019060200180831161091e57829003601f168201915b50505050508152602001600282018054610954906112c9565b80601f0160208091040260200160405190810160405280929190818152602001828054610980906112c9565b80156109cd5780601f106109a2576101008083540402835291602001916109cd565b820191906000526020600020905b8154815290600101906020018083116109b057829003601f168201915b5050505050815260200160038201548152602001600482015481526020016005820180546109fa906112c9565b80601f0160208091040260200160405190810160405280929190818152602001828054610a26906112c9565b8015610a735780601f10610a4857610100808354040283529160200191610a73565b820191906000526020600020905b815481529060010190602001808311610a5657829003601f168201915b50505050508152602001600682018054610a8c906112c9565b80601f0160208091040260200160405190810160405280929190818152602001828054610ab8906112c9565b8015610b055780601f10610ada57610100808354040283529160200191610b05565b820191906000526020600020905b815481529060010190602001808311610ae857829003601f168201915b50505050508152602001600782018054610b1e906112c9565b80601f0160208091040260200160405190810160405280929190818152602001828054610b4a906112c9565b8015610b975780601f10610b6c57610100808354040283529160200191610b97565b820191906000526020600020905b815481529060010190602001808311610b7a57829003601f168201915b5050505050815250509050919050565b604051806101000160405280600073ffffffffffffffffffffffffffffffffffffffff168152602001606081526020016060815260200160008152602001600081526020016060815260200160608152602001606081525090565b6000604051905090565b600080fd5b600080fd5b6000819050919050565b610c2981610c16565b8114610c3457600080fd5b50565b600081359050610c4681610c20565b92915050565b600060208284031215610c6257610c61610c0c565b5b6000610c7084828501610c37565b91505092915050565b600081519050919050565b600082825260208201905092915050565b6000819050602082019050919050565b600073ffffffffffffffffffffffffffffffffffffffff82169050919050565b6000610cd082610ca5565b9050919050565b610ce081610cc5565b82525050565b600081519050919050565b600082825260208201905092915050565b60005b83811015610d20578082015181840152602081019050610d05565b60008484015250505050565b6000601f19601f8301169050919050565b6000610d4882610ce6565b610d528185610cf1565b9350610d62818560208601610d02565b610d6b81610d2c565b840191505092915050565b610d7f81610c16565b82525050565b600061010083016000830151610d9e6000860182610cd7565b5060208301518482036020860152610db68282610d3d565b91505060408301518482036040860152610dd08282610d3d565b9150506060830151610de56060860182610d76565b506080830151610df86080860182610d76565b5060a083015184820360a0860152610e108282610d3d565b91505060c083015184820360c0860152610e2a8282610d3d565b91505060e083015184820360e0860152610e448282610d3d565b9150508091505092915050565b6000610e5d8383610d85565b905092915050565b6000602082019050919050565b6000610e7d82610c79565b610e878185610c84565b935083602082028501610e9985610c95565b8060005b85811015610ed55784840389528151610eb68582610e51565b9450610ec183610e65565b925060208a01995050600181019050610e9d565b50829750879550505050505092915050565b60006020820190508181036000830152610f018184610e72565b905092915050565b610f1281610cc5565b8114610f1d57600080fd5b50565b600081359050610f2f81610f09565b92915050565b600080fd5b600080fd5b7f4e487b7100000000000000000000000000000000000000000000000000000000600052604160045260246000fd5b610f7782610d2c565b810181811067ffffffffffffffff82111715610f9657610f95610f3f565b5b80604052505050565b6000610fa9610c02565b9050610fb58282610f6e565b919050565b600067ffffffffffffffff821115610fd557610fd4610f3f565b5b610fde82610d2c565b9050602081019050919050565b82818337600083830152505050565b600061100d61100884610fba565b610f9f565b90508281526020810184848401111561102957611028610f3a565b5b611034848285610feb565b509392505050565b600082601f83011261105157611050610f35565b5b8135611061848260208601610ffa565b91505092915050565b600080600080600080600080610100898b03121561108b5761108a610c0c565b5b60006110998b828c01610f20565b985050602089013567ffffffffffffffff8111156110ba576110b9610c11565b5b6110c68b828c0161103c565b975050604089013567ffffffffffffffff8111156110e7576110e6610c11565b5b6110f38b828c0161103c565b96505060606111048b828c01610c37565b95505060806111158b828c01610c37565b94505060a089013567ffffffffffffffff81111561113657611135610c11565b5b6111428b828c0161103c565b93505060c089013567ffffffffffffffff81111561116357611162610c11565b5b61116f8b828c0161103c565b92505060e089013567ffffffffffffffff8111156111905761118f610c11565b5b61119c8b828c0161103c565b9150509295985092959890939650565b6000610100830160008301516111c56000860182610cd7565b50602083015184820360208601526111dd8282610d3d565b915050604083015184820360408601526111f78282610d3d565b915050606083015161120c6060860182610d76565b50608083015161121f6080860182610d76565b5060a083015184820360a08601526112378282610d3d565b91505060c083015184820360c08601526112518282610d3d565b91505060e083015184820360e086015261126b8282610d3d565b9150508091505092915050565b6000602082019050818103600083015261129281846111ac565b905092915050565b7f4e487b7100000000000000000000000000000000000000000000000000000000600052602260045260246000fd5b600060028204905060018216806112e157607f821691505b6020821081036112f4576112f361129a565b5b50919050565b60008190508160005260206000209050919050565b60006020601f8301049050919050565b600082821b905092915050565b60006008830261135c7fffffffffffffffffffffffffffffffffffffffffffffffffffffffffffffffff8261131f565b611366868361131f565b95508019841693508086168417925050509392505050565b6000819050919050565b6000819050919050565b60006113ad6113a86113a38461137e565b611388565b61137e565b9050919050565b6000819050919050565b6113c783611392565b6113db6113d3826113b4565b84845461132c565b825550505050565b600090565b6113f06113e3565b6113fb8184846113be565b505050565b5b8181101561141f576114146000826113e8565b600181019050611401565b5050565b601f82111561146457611435816112fa565b61143e8461130f565b8101602085101561144d578190505b6114616114598561130f565b830182611400565b50505b505050565b600082821c905092915050565b600061148760001984600802611469565b1980831691505092915050565b60006114a08383611476565b9150826002028217905092915050565b6114b982610ce6565b67ffffffffffffffff8111156114d2576114d1610f3f565b5b6114dc82546112c9565b6114e7828285611423565b600060209050601f83116001811461151a5760008415611508578287015190505b6115128582611494565b86555061157a565b601f198416611528866112fa565b60005b828110156115505784890151825560018201915060208501945060208101905061152b565b8683101561156d5784890151611569601f891682611476565b8355505b6001600288020188555050505b505050505050565b600081549050611591816112c9565b9050919050565b8181036115a657505061167e565b6115af82611582565b67ffffffffffffffff8111156115c8576115c7610f3f565b5b6115d282546112c9565b6115dd828285611423565b6000601f83116001811461160c57600084156115fa578287015490505b6116048582611494565b865550611677565b601f19841661161a876112fa565b9650611625866112fa565b60005b8281101561164d57848901548255600182019150600185019450602081019050611628565b8683101561166a5784890154611666601f891682611476565b8355505b6001600288020188555050505b5050505050505b565b61168981610cc5565b82525050565b600082825260208201905092915050565b600081546116ad816112c9565b6116b7818661168f565b945060018216600081146116d257600181146116e85761171b565b60ff19831686528115156020028601935061171b565b6116f1856112fa565b60005b83811015611713578154818901526001820191506020810190506116f4565b808801955050505b50505092915050565b61172d81610c16565b82525050565b600061010082019050611749600083018b611680565b818103602083015261175b818a6116a0565b9050818103604083015261176f81896116a0565b905061177e6060830188611724565b61178b6080830187611724565b81810360a083015261179d81866116a0565b905081810360c08301526117b181856116a0565b905081810360e08301526117c581846116a0565b9050999850505050505050505056fea2646970667358221220ab688af2e60dae51c62e6c7b5c699f3e34815c589c90fe316137966d98ea497864736f6c63430008110033",
  "immutableReferences": {},
  "source": "//SPDX-License-Identifier: UNLICENSED\r\npragma solidity ^0.8.17;\r\n\r\n// /**\r\n//  * @title Banque records\r\n//  * @author Pushkcar\r\n//  * @dev Store & retreive patient details\r\n//  */\r\n\r\ncontract Client {\r\n    mapping(int256 => Patientt) internal patients;\r\n    // mapping(uint256 =>attendant) attendantlist;\r\n    Patientt[] patientlist;\r\n\r\n    event PatientAdded(\r\n        address _id,\r\n        string _fname,\r\n        string _lname,\r\n        int256 _cin,\r\n        int256 _phone,\r\n        string _email,\r\n        string _address,\r\n        string _status\r\n    );\r\n\r\n    // event StatusUpdated(\r\n    //   string stat\r\n    // );\r\n    \r\n\r\n    struct Patientt {\r\n        address id;\r\n        string fname;\r\n        string lname;\r\n        int256 cin;\r\n        int256 phone;\r\n        string email;\r\n        string adress;\r\n        string status;\r\n    }\r\n    Patientt p;\r\n    \r\n    /**\r\n         * @dev Store patient details\r\n            //   * @param _id id\r\n            //  * @param _fname fname\r\n           //  * @param _lname lname\r\n          //  * @param _cin cin\r\n           //  * @param _phone phone\r\n            //  * @param _email email\r\n          //  * @param _address adress\r\n          //  * @param _status status\r\n         */\r\n    function store_patient_details(\r\n        address _id,\r\n        string memory _fname,\r\n        string memory _lname,\r\n        int256 _cin,\r\n        int256 _phone,\r\n        string memory _email,\r\n        string memory _address,\r\n        string memory _status\r\n    ) public {\r\n        p.id = _id;\r\n        p.fname = _fname;\r\n        p.lname = _lname;\r\n        p.cin = _cin;\r\n        p.phone = _phone;\r\n        p.email = _email;\r\n        p.adress = _address;\r\n        p.status = _status;\r\n        patients[p.cin] = p;\r\n\r\n        patientlist.push(p);\r\n        emit PatientAdded(\r\n            p.id,\r\n            p.fname,\r\n            p.lname,\r\n            p.cin,\r\n            p.phone,\r\n            p.email,\r\n            p.adress,\r\n            p.status\r\n        );\r\n    }\r\n\r\n    /**\r\n    //  * @dev Retreive patient details\r\n    //  * @param cin patient cin\r\n    //  * @return patient object\r\n    * */\r\n\r\n    function retreive_patient_details(int256 cin)\r\n        public\r\n        view\r\n        returns (Patientt memory)\r\n    {\r\n        return patients[cin];\r\n\r\n    }\r\n\r\n    \r\n    /**\r\n    //  * @dev Retreive patient details\r\n    //  * @return patientss object\r\n     * */\r\n    function retreive_patients() public view returns (Patientt[] memory) {\r\n        return patientlist;\r\n    }\r\n\r\n     function update_patient_status(int256 cin)\r\n        public\r\n        \r\n    {\r\n        string memory stat=\"True\";\r\n         patients[cin].status=stat;\r\n        //  emit StatusUpdated( stat);\r\n    }\r\n\r\n}\r\n",
  "sourcePath": "C:\\Users\\PC\\Desktop\\Blockchain\\contract\\contracts\\client.sol",
  "compiler": {
    "name": "solc",
    "version": "0.8.17+commit.8df45f5f.Emscripten.clang"
  },
  "schemaVersion": "3.4.10",
  "updatedAt": "2022-12-07T07:21:26.723Z",
  "networkType": "ethereum",
  "devdoc": {
    "kind": "dev",
    "methods": {
      "retreive_patient_details(int256)": {
        "details": "Retreive patient details",
        "params": {
          "cin": "patient cin"
        },
        "returns": {
          "_0": "patient object "
        }
      },
      "retreive_patients()": {
        "details": "Retreive patient details",
        "returns": {
          "_0": "patientss object "
        }
      },
      "store_patient_details(address,string,string,int256,int256,string,string,string)": {
        "details": "Store patient details",
        "params": {
          "_address": "adress",
          "_cin": "cin",
          "_email": "email",
          "_fname": "fname",
          "_id": "id",
          "_lname": "lname",
          "_phone": "phone",
          "_status": "status"
        }
      }
    },
    "version": 1
  },
  "userdoc": {
    "kind": "user",
    "methods": {},
    "version": 1
  }
}